{
  "_format": "hh-sol-artifact-1",
  "contractName": "Decisivity",
  "sourceName": "contracts/Decisivity.sol",
  "abi": [
    {
      "inputs": [],
      "stateMutability": "nonpayable",
      "type": "constructor"
    },
    {
      "anonymous": false,
      "inputs": [
        {
          "indexed": true,
          "internalType": "address",
          "name": "creator",
          "type": "address"
        },
        {
          "indexed": true,
          "internalType": "address",
          "name": "destination",
          "type": "address"
        },
        {
          "indexed": false,
          "internalType": "address",
          "name": "currentHolder",
          "type": "address"
        },
        {
          "indexed": false,
          "internalType": "address",
          "name": "nextHolder",
          "type": "address"
        },
        {
          "indexed": true,
          "internalType": "uint256",
          "name": "ItemID",
          "type": "uint256"
        },
        {
          "indexed": false,
          "internalType": "uint256",
          "name": "value",
          "type": "uint256"
        },
        {
          "indexed": false,
          "internalType": "string",
          "name": "message",
          "type": "string"
        },
        {
          "indexed": false,
          "internalType": "uint256",
          "name": "timestamp",
          "type": "uint256"
        },
        {
          "indexed": false,
          "internalType": "bool",
          "name": "complete",
          "type": "bool"
        }
      ],
      "name": "NewItem",
      "type": "event"
    },
    {
      "anonymous": false,
      "inputs": [
        {
          "indexed": false,
          "internalType": "uint256",
          "name": "itemID",
          "type": "uint256"
        },
        {
          "indexed": false,
          "internalType": "address",
          "name": "currentHolder",
          "type": "address"
        },
        {
          "indexed": false,
          "internalType": "address",
          "name": "nextHolder",
          "type": "address"
        }
      ],
      "name": "changedItemHolder",
      "type": "event"
    },
    {
      "anonymous": false,
      "inputs": [
        {
          "indexed": false,
          "internalType": "uint256",
          "name": "itemID",
          "type": "uint256"
        },
        {
          "indexed": false,
          "internalType": "bool",
          "name": "complete",
          "type": "bool"
        }
      ],
      "name": "updatedItem",
      "type": "event"
    },
    {
      "inputs": [
        {
          "internalType": "address",
          "name": "_adding",
          "type": "address"
        },
        {
          "internalType": "uint256",
          "name": "_arrayAdd",
          "type": "uint256"
        }
      ],
      "name": "addAddress",
      "outputs": [],
      "stateMutability": "nonpayable",
      "type": "function"
    },
    {
      "inputs": [
        {
          "internalType": "uint256",
          "name": "_itemID",
          "type": "uint256"
        },
        {
          "internalType": "string",
          "name": "_message",
          "type": "string"
        }
      ],
      "name": "commentItem",
      "outputs": [],
      "stateMutability": "nonpayable",
      "type": "function"
    },
    {
      "inputs": [
        {
          "internalType": "uint256",
          "name": "_itemID",
          "type": "uint256"
        }
      ],
      "name": "completeItem",
      "outputs": [],
      "stateMutability": "nonpayable",
      "type": "function"
    },
    {
      "inputs": [],
      "name": "getAllItems",
      "outputs": [
        {
          "components": [
            {
              "internalType": "address",
              "name": "creator",
              "type": "address"
            },
            {
              "internalType": "address",
              "name": "destination",
              "type": "address"
            },
            {
              "internalType": "address",
              "name": "currentHolder",
              "type": "address"
            },
            {
              "internalType": "address",
              "name": "nextHolder",
              "type": "address"
            },
            {
              "internalType": "uint256",
              "name": "itemID",
              "type": "uint256"
            },
            {
              "internalType": "uint256",
              "name": "value",
              "type": "uint256"
            },
            {
              "internalType": "string",
              "name": "message",
              "type": "string"
            },
            {
              "internalType": "uint256",
              "name": "lastUpdated",
              "type": "uint256"
            },
            {
              "internalType": "uint256",
              "name": "timestamp",
              "type": "uint256"
            },
            {
              "internalType": "bool",
              "name": "complete",
              "type": "bool"
            }
          ],
          "internalType": "struct Decisivity.Item[]",
          "name": "",
          "type": "tuple[]"
        }
      ],
      "stateMutability": "view",
      "type": "function"
    },
    {
      "inputs": [],
      "name": "getDistri",
      "outputs": [
        {
          "internalType": "address[]",
          "name": "",
          "type": "address[]"
        }
      ],
      "stateMutability": "view",
      "type": "function"
    },
    {
      "inputs": [],
      "name": "getHolderType",
      "outputs": [
        {
          "internalType": "uint256",
          "name": "",
          "type": "uint256"
        }
      ],
      "stateMutability": "view",
      "type": "function"
    },
    {
      "inputs": [],
      "name": "getMiddle",
      "outputs": [
        {
          "internalType": "address[]",
          "name": "",
          "type": "address[]"
        }
      ],
      "stateMutability": "view",
      "type": "function"
    },
    {
      "inputs": [],
      "name": "getOwners",
      "outputs": [
        {
          "internalType": "address[]",
          "name": "",
          "type": "address[]"
        }
      ],
      "stateMutability": "view",
      "type": "function"
    },
    {
      "inputs": [],
      "name": "getTotalItems",
      "outputs": [
        {
          "internalType": "uint256",
          "name": "",
          "type": "uint256"
        }
      ],
      "stateMutability": "view",
      "type": "function"
    },
    {
      "inputs": [
        {
          "internalType": "uint256",
          "name": "",
          "type": "uint256"
        }
      ],
      "name": "items",
      "outputs": [
        {
          "internalType": "address",
          "name": "creator",
          "type": "address"
        },
        {
          "internalType": "address",
          "name": "destination",
          "type": "address"
        },
        {
          "internalType": "address",
          "name": "currentHolder",
          "type": "address"
        },
        {
          "internalType": "address",
          "name": "nextHolder",
          "type": "address"
        },
        {
          "internalType": "uint256",
          "name": "itemID",
          "type": "uint256"
        },
        {
          "internalType": "uint256",
          "name": "value",
          "type": "uint256"
        },
        {
          "internalType": "string",
          "name": "message",
          "type": "string"
        },
        {
          "internalType": "uint256",
          "name": "lastUpdated",
          "type": "uint256"
        },
        {
          "internalType": "uint256",
          "name": "timestamp",
          "type": "uint256"
        },
        {
          "internalType": "bool",
          "name": "complete",
          "type": "bool"
        }
      ],
      "stateMutability": "view",
      "type": "function"
    },
    {
      "inputs": [
        {
          "internalType": "address",
          "name": "_nextHolder",
          "type": "address"
        },
        {
          "internalType": "uint256",
          "name": "_itemID",
          "type": "uint256"
        }
      ],
      "name": "updateHolders",
      "outputs": [],
      "stateMutability": "nonpayable",
      "type": "function"
    },
    {
      "inputs": [
        {
          "internalType": "address",
          "name": "_destination",
          "type": "address"
        },
        {
          "internalType": "address",
          "name": "_currentHolder",
          "type": "address"
        },
        {
          "internalType": "address",
          "name": "_nextHolder",
          "type": "address"
        },
        {
          "internalType": "uint256",
          "name": "_value",
          "type": "uint256"
        },
        {
          "internalType": "string",
          "name": "_message",
          "type": "string"
        }
      ],
      "name": "wave",
      "outputs": [],
      "stateMutability": "nonpayable",
      "type": "function"
    }
  ],
  "bytecode": "0x6080604052600060035560016004556002600555603260065534801561002457600080fd5b506000339080600181540180825580915050600190039060005260206000200160009091909190916101000a81548173ffffffffffffffffffffffffffffffffffffffff021916908373ffffffffffffffffffffffffffffffffffffffff160217905550612109806100976000396000f3fe608060405234801561001057600080fd5b50600436106100b45760003560e01c8063814868ff11610071578063814868ff14610165578063a0e67e2b14610183578063bfb231d2146101a1578063d27f8285146101da578063d4606f51146101f8578063e32c079a14610214576100b4565b8063243ab397146100b9578063310aac69146100d557806349df2920146100f35780634ba1d6aa1461010f57806361c977781461012d57806363c0565014610149575b600080fd5b6100d360048036038101906100ce91906115db565b610232565b005b6100dd610539565b6040516100ea9190611681565b60405180910390f35b61010d6004803603810190610108919061169c565b610584565b005b61011761077c565b6040516101249190611930565b60405180910390f35b61014760048036038101906101429190611952565b610a09565b005b610163600480360381019061015e919061169c565b610b0d565b005b61016d610cee565b60405161017a9190611681565b60405180910390f35b61018b610ed0565b6040516101989190611a2e565b60405180910390f35b6101bb60048036038101906101b69190611952565b610f5e565b6040516101d19a99989796959493929190611ab8565b60405180910390f35b6101e26110d7565b6040516101ef9190611a2e565b60405180910390f35b610212600480360381019061020d9190611b5b565b611165565b005b61021c6111fb565b6040516102299190611a2e565b60405180910390f35b6001600760008282546102459190611be6565b92505081905550600060075490506102766040518060600160405280602781526020016120ad602791393384611289565b60086040518061014001604052803373ffffffffffffffffffffffffffffffffffffffff1681526020018873ffffffffffffffffffffffffffffffffffffffff1681526020018773ffffffffffffffffffffffffffffffffffffffff1681526020018673ffffffffffffffffffffffffffffffffffffffff1681526020018381526020018581526020018481526020014281526020014281526020016000151581525090806001815401808255809150506001900390600052602060002090600a020160009091909190915060008201518160000160006101000a81548173ffffffffffffffffffffffffffffffffffffffff021916908373ffffffffffffffffffffffffffffffffffffffff16021790555060208201518160010160006101000a81548173ffffffffffffffffffffffffffffffffffffffff021916908373ffffffffffffffffffffffffffffffffffffffff16021790555060408201518160020160006101000a81548173ffffffffffffffffffffffffffffffffffffffff021916908373ffffffffffffffffffffffffffffffffffffffff16021790555060608201518160030160006101000a81548173ffffffffffffffffffffffffffffffffffffffff021916908373ffffffffffffffffffffffffffffffffffffffff1602179055506080820151816004015560a0820151816005015560c08201518160060190816104879190611e26565b5060e0820151816007015561010082015181600801556101208201518160090160006101000a81548160ff0219169083151502179055505050808673ffffffffffffffffffffffffffffffffffffffff163373ffffffffffffffffffffffffffffffffffffffff167faa7aed6cf28d4be6a7ae98c24152209c91674a2aebbd23317809bb5f244da5df8888888842600060405161052996959493929190611ef8565b60405180910390a4505050505050565b600061057c6040518060400160405280601781526020017f5765206861766520256420746f74616c206974656d7321000000000000000000815250600754611328565b600754905090565b60005b6007548110156107775781600882815481106105a6576105a5611f60565b5b90600052602060002090600a02016004015403610764573373ffffffffffffffffffffffffffffffffffffffff16600882815481106105e8576105e7611f60565b5b90600052602060002090600a020160030160009054906101000a900473ffffffffffffffffffffffffffffffffffffffff1673ffffffffffffffffffffffffffffffffffffffff160361076357336008828154811061064a57610649611f60565b5b90600052602060002090600a020160020160006101000a81548173ffffffffffffffffffffffffffffffffffffffff021916908373ffffffffffffffffffffffffffffffffffffffff16021790555082600882815481106106ae576106ad611f60565b5b90600052602060002090600a020160030160006101000a81548173ffffffffffffffffffffffffffffffffffffffff021916908373ffffffffffffffffffffffffffffffffffffffff160217905550426008828154811061071257610711611f60565b5b90600052602060002090600a0201600701819055507f0b89444350ddb62c5d5f124ed5f82c32e2769a7a1165139492acbc45809a32fe81338560405161075a93929190611f8f565b60405180910390a15b5b808061076f90611fc6565b915050610587565b505050565b60606008805480602002602001604051908101604052809291908181526020016000905b82821015610a0057838290600052602060002090600a0201604051806101400160405290816000820160009054906101000a900473ffffffffffffffffffffffffffffffffffffffff1673ffffffffffffffffffffffffffffffffffffffff1673ffffffffffffffffffffffffffffffffffffffff1681526020016001820160009054906101000a900473ffffffffffffffffffffffffffffffffffffffff1673ffffffffffffffffffffffffffffffffffffffff1673ffffffffffffffffffffffffffffffffffffffff1681526020016002820160009054906101000a900473ffffffffffffffffffffffffffffffffffffffff1673ffffffffffffffffffffffffffffffffffffffff1673ffffffffffffffffffffffffffffffffffffffff1681526020016003820160009054906101000a900473ffffffffffffffffffffffffffffffffffffffff1673ffffffffffffffffffffffffffffffffffffffff1673ffffffffffffffffffffffffffffffffffffffff168152602001600482015481526020016005820154815260200160068201805461094090611c49565b80601f016020809104026020016040519081016040528092919081815260200182805461096c90611c49565b80156109b95780601f1061098e576101008083540402835291602001916109b9565b820191906000526020600020905b81548152906001019060200180831161099c57829003601f168201915b5050505050815260200160078201548152602001600882015481526020016009820160009054906101000a900460ff161515151581525050815260200190600101906107a0565b50505050905090565b600354610a14610cee565b03610b0a5760005b600754811015610b08578160088281548110610a3b57610a3a611f60565b5b90600052602060002090600a02016004015403610af557600160088281548110610a6857610a67611f60565b5b90600052602060002090600a020160090160006101000a81548160ff0219169083151502179055504260088281548110610aa557610aa4611f60565b5b90600052602060002090600a0201600701819055507f564aedc9b2321c142ad94ff8657d62ae22917db7b38324a11c29d16f7ae99109816001604051610aec92919061200e565b60405180910390a15b8080610b0090611fc6565b915050610a1c565b505b50565b60005b600080549050811015610ce9573373ffffffffffffffffffffffffffffffffffffffff1660008281548110610b4857610b47611f60565b5b9060005260206000200160009054906101000a900473ffffffffffffffffffffffffffffffffffffffff1673ffffffffffffffffffffffffffffffffffffffff1603610cd6576003548203610bfb576000839080600181540180825580915050600190039060005260206000200160009091909190916101000a81548173ffffffffffffffffffffffffffffffffffffffff021916908373ffffffffffffffffffffffffffffffffffffffff1602179055505b6004548203610c68576001839080600181540180825580915050600190039060005260206000200160009091909190916101000a81548173ffffffffffffffffffffffffffffffffffffffff021916908373ffffffffffffffffffffffffffffffffffffffff1602179055505b6005548203610cd5576002839080600181540180825580915050600190039060005260206000200160009091909190916101000a81548173ffffffffffffffffffffffffffffffffffffffff021916908373ffffffffffffffffffffffffffffffffffffffff1602179055505b5b8080610ce190611fc6565b915050610b10565b505050565b60008060009050600080549050811015610ecb573373ffffffffffffffffffffffffffffffffffffffff1660008281548110610d2d57610d2c611f60565b5b9060005260206000200160009054906101000a900473ffffffffffffffffffffffffffffffffffffffff1673ffffffffffffffffffffffffffffffffffffffff1603610d7e57600354915050610ecd565b60005b600180549050811015610e1e573373ffffffffffffffffffffffffffffffffffffffff1660018281548110610db957610db8611f60565b5b9060005260206000200160009054906101000a900473ffffffffffffffffffffffffffffffffffffffff1673ffffffffffffffffffffffffffffffffffffffff1603610e0b5760045492505050610ecd565b8080610e1690611fc6565b915050610d81565b5060005b600280549050811015610ebf573373ffffffffffffffffffffffffffffffffffffffff1660028281548110610e5a57610e59611f60565b5b9060005260206000200160009054906101000a900473ffffffffffffffffffffffffffffffffffffffff1673ffffffffffffffffffffffffffffffffffffffff1603610eac5760055492505050610ecd565b8080610eb790611fc6565b915050610e22565b50600654915050610ecd565b505b90565b60606000805480602002602001604051908101604052809291908181526020018280548015610f5457602002820191906000526020600020905b8160009054906101000a900473ffffffffffffffffffffffffffffffffffffffff1673ffffffffffffffffffffffffffffffffffffffff1681526020019060010190808311610f0a575b5050505050905090565b60088181548110610f6e57600080fd5b90600052602060002090600a02016000915090508060000160009054906101000a900473ffffffffffffffffffffffffffffffffffffffff16908060010160009054906101000a900473ffffffffffffffffffffffffffffffffffffffff16908060020160009054906101000a900473ffffffffffffffffffffffffffffffffffffffff16908060030160009054906101000a900473ffffffffffffffffffffffffffffffffffffffff169080600401549080600501549080600601805461103590611c49565b80601f016020809104026020016040519081016040528092919081815260200182805461106190611c49565b80156110ae5780601f10611083576101008083540402835291602001916110ae565b820191906000526020600020905b81548152906001019060200180831161109157829003601f168201915b5050505050908060070154908060080154908060090160009054906101000a900460ff1690508a565b6060600180548060200260200160405190810160405280929190818152602001828054801561115b57602002820191906000526020600020905b8160009054906101000a900473ffffffffffffffffffffffffffffffffffffffff1673ffffffffffffffffffffffffffffffffffffffff1681526020019060010190808311611111575b5050505050905090565b600354611170610cee565b036111f75760005b6007548110156111f557826008828154811061119757611196611f60565b5b90600052602060002090600a020160040154036111e25781600882815481106111c3576111c2611f60565b5b90600052602060002090600a020160060190816111e09190611e26565b505b80806111ed90611fc6565b915050611178565b505b5050565b6060600280548060200260200160405190810160405280929190818152602001828054801561127f57602002820191906000526020600020905b8160009054906101000a900473ffffffffffffffffffffffffffffffffffffffff1673ffffffffffffffffffffffffffffffffffffffff1681526020019060010190808311611235575b5050505050905090565b6113238383836040516024016112a193929190612037565b6040516020818303038152906040527fe0e9ad4f000000000000000000000000000000000000000000000000000000007bffffffffffffffffffffffffffffffffffffffffffffffffffffffff19166020820180517bffffffffffffffffffffffffffffffffffffffffffffffffffffffff83818316178352505050506113c4565b505050565b6113c0828260405160240161133e92919061207c565b6040516020818303038152906040527fb60e72cc000000000000000000000000000000000000000000000000000000007bffffffffffffffffffffffffffffffffffffffffffffffffffffffff19166020820180517bffffffffffffffffffffffffffffffffffffffffffffffffffffffff83818316178352505050506113c4565b5050565b60008151905060006a636f6e736f6c652e6c6f679050602083016000808483855afa5050505050565b6000604051905090565b600080fd5b600080fd5b600073ffffffffffffffffffffffffffffffffffffffff82169050919050565b600061142c82611401565b9050919050565b61143c81611421565b811461144757600080fd5b50565b60008135905061145981611433565b92915050565b6000819050919050565b6114728161145f565b811461147d57600080fd5b50565b60008135905061148f81611469565b92915050565b600080fd5b600080fd5b6000601f19601f8301169050919050565b7f4e487b7100000000000000000000000000000000000000000000000000000000600052604160045260246000fd5b6114e88261149f565b810181811067ffffffffffffffff82111715611507576115066114b0565b5b80604052505050565b600061151a6113ed565b905061152682826114df565b919050565b600067ffffffffffffffff821115611546576115456114b0565b5b61154f8261149f565b9050602081019050919050565b82818337600083830152505050565b600061157e6115798461152b565b611510565b90508281526020810184848401111561159a5761159961149a565b5b6115a584828561155c565b509392505050565b600082601f8301126115c2576115c1611495565b5b81356115d284826020860161156b565b91505092915050565b600080600080600060a086880312156115f7576115f66113f7565b5b60006116058882890161144a565b95505060206116168882890161144a565b94505060406116278882890161144a565b935050606061163888828901611480565b925050608086013567ffffffffffffffff811115611659576116586113fc565b5b611665888289016115ad565b9150509295509295909350565b61167b8161145f565b82525050565b60006020820190506116966000830184611672565b92915050565b600080604083850312156116b3576116b26113f7565b5b60006116c18582860161144a565b92505060206116d285828601611480565b9150509250929050565b600081519050919050565b600082825260208201905092915050565b6000819050602082019050919050565b61171181611421565b82525050565b6117208161145f565b82525050565b600081519050919050565b600082825260208201905092915050565b60005b83811015611760578082015181840152602081019050611745565b60008484015250505050565b600061177782611726565b6117818185611731565b9350611791818560208601611742565b61179a8161149f565b840191505092915050565b60008115159050919050565b6117ba816117a5565b82525050565b6000610140830160008301516117d96000860182611708565b5060208301516117ec6020860182611708565b5060408301516117ff6040860182611708565b5060608301516118126060860182611708565b5060808301516118256080860182611717565b5060a083015161183860a0860182611717565b5060c083015184820360c0860152611850828261176c565b91505060e083015161186560e0860182611717565b5061010083015161187a610100860182611717565b5061012083015161188f6101208601826117b1565b508091505092915050565b60006118a683836117c0565b905092915050565b6000602082019050919050565b60006118c6826116dc565b6118d081856116e7565b9350836020820285016118e2856116f8565b8060005b8581101561191e57848403895281516118ff858261189a565b945061190a836118ae565b925060208a019950506001810190506118e6565b50829750879550505050505092915050565b6000602082019050818103600083015261194a81846118bb565b905092915050565b600060208284031215611968576119676113f7565b5b600061197684828501611480565b91505092915050565b600081519050919050565b600082825260208201905092915050565b6000819050602082019050919050565b60006119b78383611708565b60208301905092915050565b6000602082019050919050565b60006119db8261197f565b6119e5818561198a565b93506119f08361199b565b8060005b83811015611a21578151611a0888826119ab565b9750611a13836119c3565b9250506001810190506119f4565b5085935050505092915050565b60006020820190508181036000830152611a4881846119d0565b905092915050565b611a5981611421565b82525050565b600082825260208201905092915050565b6000611a7b82611726565b611a858185611a5f565b9350611a95818560208601611742565b611a9e8161149f565b840191505092915050565b611ab2816117a5565b82525050565b600061014082019050611ace600083018d611a50565b611adb602083018c611a50565b611ae8604083018b611a50565b611af5606083018a611a50565b611b026080830189611672565b611b0f60a0830188611672565b81810360c0830152611b218187611a70565b9050611b3060e0830186611672565b611b3e610100830185611672565b611b4c610120830184611aa9565b9b9a5050505050505050505050565b60008060408385031215611b7257611b716113f7565b5b6000611b8085828601611480565b925050602083013567ffffffffffffffff811115611ba157611ba06113fc565b5b611bad858286016115ad565b9150509250929050565b7f4e487b7100000000000000000000000000000000000000000000000000000000600052601160045260246000fd5b6000611bf18261145f565b9150611bfc8361145f565b9250828201905080821115611c1457611c13611bb7565b5b92915050565b7f4e487b7100000000000000000000000000000000000000000000000000000000600052602260045260246000fd5b60006002820490506001821680611c6157607f821691505b602082108103611c7457611c73611c1a565b5b50919050565b60008190508160005260206000209050919050565b60006020601f8301049050919050565b600082821b905092915050565b600060088302611cdc7fffffffffffffffffffffffffffffffffffffffffffffffffffffffffffffffff82611c9f565b611ce68683611c9f565b95508019841693508086168417925050509392505050565b6000819050919050565b6000611d23611d1e611d198461145f565b611cfe565b61145f565b9050919050565b6000819050919050565b611d3d83611d08565b611d51611d4982611d2a565b848454611cac565b825550505050565b600090565b611d66611d59565b611d71818484611d34565b505050565b5b81811015611d9557611d8a600082611d5e565b600181019050611d77565b5050565b601f821115611dda57611dab81611c7a565b611db484611c8f565b81016020851015611dc3578190505b611dd7611dcf85611c8f565b830182611d76565b50505b505050565b600082821c905092915050565b6000611dfd60001984600802611ddf565b1980831691505092915050565b6000611e168383611dec565b9150826002028217905092915050565b611e2f82611726565b67ffffffffffffffff811115611e4857611e476114b0565b5b611e528254611c49565b611e5d828285611d99565b600060209050601f831160018114611e905760008415611e7e578287015190505b611e888582611e0a565b865550611ef0565b601f198416611e9e86611c7a565b60005b82811015611ec657848901518255600182019150602085019450602081019050611ea1565b86831015611ee35784890151611edf601f891682611dec565b8355505b6001600288020188555050505b505050505050565b600060c082019050611f0d6000830189611a50565b611f1a6020830188611a50565b611f276040830187611672565b8181036060830152611f398186611a70565b9050611f486080830185611672565b611f5560a0830184611aa9565b979650505050505050565b7f4e487b7100000000000000000000000000000000000000000000000000000000600052603260045260246000fd5b6000606082019050611fa46000830186611672565b611fb16020830185611a50565b611fbe6040830184611a50565b949350505050565b6000611fd18261145f565b91507fffffffffffffffffffffffffffffffffffffffffffffffffffffffffffffffff820361200357612002611bb7565b5b600182019050919050565b60006040820190506120236000830185611672565b6120306020830184611aa9565b9392505050565b600060608201905081810360008301526120518186611a70565b90506120606020830185611a50565b81810360408301526120728184611a70565b9050949350505050565b600060408201905081810360008301526120968185611a70565b90506120a56020830184611672565b939250505056fe257320637265617465642061206e6577206974656d20772f206465736372697074696f6e202573a2646970667358221220f913e9d3d76ed2889d7b23fd8e24b90d976d35b0620c1265718af96b4f9b1fa964736f6c63430008110033",
  "linkReferences": {},
  "deployedLinkReferences": {}
}